:020000040800F2
:1000000000000120950100083102000831020008BB
:10001000310200083102000831020008000000002F
:100020000000000000000000000000003102000895
:10003000310200080000000031020008F11B000836
:1000400031020008310200083102000831020008C4
:100050003102000831020008D1090008F109000846
:10006000110A0008310A0008510A0008310200088C
:100070003102000831020008310200083102000894
:1000800031020008310200083102000800000000BF
:10009000000000000000000000000000710A0008DD
:1000A0003102000831020008310200083102000864
:1000B0003102000831020008310200083102000854
:1000C0003102000831020008310200083102000844
:1000D000310200083102000831020008000000006F
:1000E000250B000831020008310200080000000062
:1000F00000000000000000000000000031020008C5
:10010000000000003102000831020008310200083E
:1001100000000000000000000000000000000000DF
:1001200031020008310200083102000831020008E3
:100130003102000800000000000000000000000084
:100140000000000000000000000000003102000874
:1001500031020008310200083102000831020008B3
:100160003102000831020008000000000000000019
:10017000000000000000000000000000000000007F
:100180000000000031020008000000000000000034
:100190003102000880B584B000AF0023FB6000236B
:1001A000BB6000237B6000233B601C4BBB601C4B8F
:1001B0007B601C4A1A4BD31A9B103B600023FB60E8
:1001C0000AE0BA68131DBB607B68191D796012686C
:1001D0001A60FB680133FB60FA683B689A42F0D30F
:1001E000114BBB60114A104BD31A9B103B6000238C
:1001F000FB6007E0BB681A1DBA6000221A60FB684A
:100200000133FB60FA683B689A42F3D300F0FFF9D0
:1002100002F084FC00F0EAF8FEE700BFE42B0008DF
:1002200000000020A8000020B00000203C010020B9
:0802300080B400AFFEE700BF3F
:1002380010B5054C237833B9044B13B10448AFF318
:1002480000800123237010BDB000002000000000D2
:10025800D82B000808B5034B1BB103490348AFF37B
:10026800008008BD00000000B4000020D82B000862
:10027800A3F5803A704700BF174B002B08BF134BFC
:100288009D46FFF7F5FF00218B460F461348144A99
:10029800121A02F063FC0E4B002B00D098470D4B4E
:1002A800002B00D098470020002104000D000D48C5
:1002B800002802D00C48AFF3008002F02BFC20008D
:1002C800290000F08FF802F011FC00BF00000800C0
:1002D800000000000000000000000000B000002046
:1002E8003C010020000000000000000080B588B03C
:1002F80000AF01F029FE0346374A934267D1042133
:10030800364801F09EFF364BFB6102E0FB69013B7A
:10031800FB61FB69002BF9D10221304801F091FF04
:100328002F4BBB6102E0BB69013BBB61BB69002B82
:10033800F9D10121294801F084FF294B7B6102E0B2
:100348007B69013B7B617B69002BF9D1062123483E
:1003580001F077FF224B3B6102E03B69013B3B61C7
:100368003B69002BF9D105211C4801F06AFF1C4BA1
:10037800FB6002E0FB68013BFB60FB68002BF9D1E6
:100388000321164801F05DFF154BBB6002E0BB6816
:10039800013BBB60BB68002BF9D107210F4801F076
:1003A80050FF0F4B7B6002E07B68013B7B607B6802
:1003B800002BF9D10021094801F043FF084B3B60AD
:1003C80002E03B68013B3B603B68002BF9D100BF72
:1003D8002037BD4680BD00BF9F60D922380000206D
:1003E800801A060080B500AF034801F00AFF0349F0
:1003F800034801F047FDFEE738000020F502000839
:100408001400002080B400AF00BFBD4680BC704718
:1004180080B400AF01231846BD4680BC704780B544
:1004280082B000AF7860396002F05AFB03461622AA
:100438001A604FF0FF3318460837BD4680BD80B5B7
:1004480082B000AF78604FF0FF317868FFF7E7FFC0
:10045800FEE780B586B000AFF860B9607A60002327
:100468007B610AE0AFF300800146BB685A1CBA60A2
:10047800CAB21A707B6901337B617A697B689A42D8
:10048800F0DB7B6818461837BD4680BD80B586B05E
:1004980000AFF860B9607A6000237B6109E0BB684F
:1004A8005A1CBA601B781846AFF300807B69013389
:1004B8007B617A697B689A42F1DB7B68184618375A
:1004C800BD4680BD80B483B000AF78604FF0FF3385
:1004D80018460C37BD4680BC704780B483B000AF67
:1004E800786039603B684FF400525A600023184620
:1004F8000C37BD4680BC704780B483B000AF7860CD
:10050800012318460C37BD4680BC704780B485B0BF
:1005180000AFF860B9607A60002318461437BD460A
:1005280080BC70470EB480B482B000AF78604FF0E2
:10053800FF3318460837BD4680BC03B0704780B506
:1005480082B000AF786002F0CBFA03460A221A6044
:100558004FF0FF3318460837BD4680BD80B582B0DE
:1005680000AF786002F0BCFA034602221A604FF02E
:10057800FF3318460837BD4680BD80B483B000AF4E
:1005880078604FF0FF3318460C37BD4680BC704783
:1005980080B483B000AF786039603B684FF4005294
:1005A8005A60002318460C37BD4680BC704780B59A
:1005B80082B000AF7860396002F092FA03461F22D9
:1005C8001A604FF0FF3318460837BD4680BD80B526
:1005D80000AF02F085FA03460B221A604FF0FF3392
:1005E800184680BD80B584B000AFF860B9607A6005
:1005F80002F076FA03460C221A604FF0FF331846D1
:100608001037BD4680BD80B500AF01F0CBF801F0D2
:10061800E5F900F0B9FE00BF80BD000080B582B0EA
:1006280000AF786039607B68DB78002B02D0012B43
:100638000CD017E07A4B1B687A6852781146012271
:100648008A401146764A0B4313600BE0744B5B6893
:100658007A685278114601228A401146704A0B4343
:10066800536000BF7B685B7819466E4A3B6842F866
:1006780021307B689B78022B36D0022B4BDC002B79
:1006880002D0012B18D046E0654B9B687A685278F7
:10069800114601228A401146614A0B439360604B20
:1006A800DB687A685278114601228A40D2431146A3
:1006B8005B4A0B40D3602FE0594BDB687A6852786D
:1006C800114601228A401146554A0B43D360544BC8
:1006D8009B687A685278114601228A40D2431146B3
:1006E8004F4A0B40936017E04D4B9B687A685278ED
:1006F800114601228A401146494A0B439360484BF0
:10070800DB687A685278114601228A401146444AC9
:100718000B43D36000E000BF0E21022001F0A2F8D5
:100728007B685B78032B0ED83F4B1B687A6812787E
:1007380011467A685278920001FA02F211463A4A52
:100748000B43136043E07B685B78072B12D87B6808
:100758005B78032B0ED9354B1B687A6812781146E3
:100768007A685278920001FA02F211462F4A0B4336
:1007780013602CE07B685B780B2B12D87B685B7866
:10078800072B0ED92A4B1B687A68127811467A68AB
:100798005278920001FA02F21146254A0B4313607F
:1007A80015E07B685B780F2B11D87B685B780B2B87
:1007B8000DD9204B1B687A68127811467A685278EE
:1007C800920001FA02F211461A4A0B4313607B6841
:1007D8005B78042B08D87B685B780633DBB25BB2A6
:1007E800184600F0D7FD16E07B685B78042B07D924
:1007F8007B685B78092B03D8172000F0CBFD0AE053
:100808007B685B78092B06D97B685B780F2B02D84D
:10081800282000F0BFFD00BF0837BD4680BD00BFDF
:10082800003C0140E8000020083801400C38014035
:10083800103801401438014080B483B000AF03463B
:10084800FB71074B1B68FA79012101FA02F2114684
:10085800034A0B43136000BF0C37BD4680BC70478A
:10086800003C014080B483B000AF0346FB71084BE5
:100878001B68FA79012101FA02F2D2431146044AAF
:100888000B40136000BF0C37BD4680BC704700BFEB
:10089800003C014080B483B000AF03460A46FB71B8
:1008A8001346BB71BB79022B32D0022B45DC002BDF
:1008B80002D0012B16D040E0234B9B68FA79012126
:1008C80001FA02F21146204A0B4393601E4BDB6883
:1008D800FA79012101FA02F2D24311461A4A0B4071
:1008E800D3602BE0184BDB68FA79012101FA02F298
:1008F8001146154A0B43D360134B9B68FA790121C3
:1009080001FA02F2D24311460F4A0B40936015E0F8
:100918000D4B9B68FA79012101FA02F211460A4A45
:100928000B439360084BDB68FA79012101FA02F264
:100938001146054A0B43D36000E000BF00BF0C37E7
:10094800BD4680BC704700BF003C014080B483B006
:1009580000AF03463960FB71FB7904493A6841F8F6
:10096800232000BF0C37BD4680BC7047E80000203C
:1009780080B483B000AF0346FB71074B5B69FA791B
:10098800012101FA02F21146034A0B43536100BFE9
:100998000C37BD4680BC7047003C014080B483B032
:1009A80000AF0346FB71074B5A69FB7922FA03F340
:1009B800DBB203F00103DBB218460C37BD4680BC3E
:1009C800704700BF003C014080B500AF054B1B6875
:1009D800002B02D0034B1B6898470020FFF7C8FF85
:1009E80000BF80BDE800002080B500AF054B5B6804
:1009F800002B02D0034B5B6898470120FFF7B8FF34
:100A080000BF80BDE800002080B500AF054B9B68A3
:100A1800002B02D0034B9B6898470220FFF7A8FFE2
:100A280000BF80BDE800002080B500AF054BDB6843
:100A3800002B02D0034BDB6898470320FFF798FF91
:100A480000BF80BDE800002080B500AF054B1B69E2
:100A5800002B02D0034B1B6998470420FFF788FF3F
:100A680000BF80BDE800002080B500AF0520FFF77B
:100A780095FF0346002B0AD0274B5B69002B02D059
:100A8800254B5B6998470520FFF772FF42E0062077
:100A9800FFF784FF0346002B0AD01F4B9B69002BEE
:100AA80002D01D4B9B6998470620FFF761FF31E094
:100AB8000720FFF773FF0346002B0AD0164BDB69AC
:100AC800002B02D0144BDB6998470720FFF750FF33
:100AD80020E00820FFF762FF0346002B0AD00E4BE8
:100AE8001B6A002B02D00C4B1B6A98470820FFF7A3
:100AF8003FFF0FE00920FFF751FF0346002B09D005
:100B0800054B5B6A002B02D0034B5B6A98470920B0
:100B1800FFF72EFF00BF80BDE800002080B500AFC2
:100B28000A20FFF73BFF0346002B0AD0304B9B6A95
:100B3800002B02D02E4B9B6A98470A20FFF718FF1C
:100B480053E00B20FFF72AFF0346002B0AD0284B5F
:100B5800DB6A002B02D0264BDB6A98470B20FFF795
:100B680007FF42E00C20FFF719FF0346002B0AD0CD
:100B78001F4B1B6B002B02D01D4B1B6B98470C2087
:100B8800FFF7F6FE31E00D20FFF708FF0346002BC4
:100B98000AD0174B5B6B002B02D0154B5B6B984749
:100BA8000D20FFF7E5FE20E00E20FFF7F7FE0346D5
:100BB800002B0AD00E4B9B6B002B02D00C4B9B6B6F
:100BC80098470E20FFF7D4FE0FE00F20FFF7E6FE50
:100BD8000346002B09D0064BDB6B002B02D0044BDD
:100BE800DB6B98470F20FFF7C3FE00BF80BD00BF37
:100BF800E800002080B483B000AF0346FB710B46C9
:100C0800BB7113467B71FB79022B2CD0022B3DDC88
:100C1800002B02D0012B13D038E01F4B1B68BA7988
:100C28005200032101FA02F2D24313407979BA79CA
:100C3800520001FA02F21146174A0B43136026E0EC
:100C4800164B1B68BA795200032101FA02F2D2430B
:100C580013407979BA79520001FA02F211460F4A23
:100C68000B43136013E00E4B1B68BA795200032143
:100C780001FA02F2D24313407979BA79520001FAA3
:100C880002F21146064A0B43136000E000BF00BFA2
:100C98000C37BD4680BC704700000240000402408B
:100CA8000008024080B483B000AF0346FB710B46D6
:100CB800BB7113467B71FB79022B28D0022B37DCE2
:100CC800002B02D0012B11D032E01C4B1B68BA79E3
:100CD800012101FA02F2D24313407979BA7901FA73
:100CE80002F21146154A0B43136022E0134B1B68AE
:100CF800BA79012101FA02F2D24313407979BA791B
:100D080001FA02F211460D4A0B43136011E00C4B35
:100D18001B68BA79012101FA02F2D24313407979AA
:100D2800BA7901FA02F21146054A0B43136000E052
:100D380000BF00BF0C37BD4680BC704704040240AA
:100D48000408024080B483B000AF0346FB710B4631
:100D5800BB7113467B71FB79022B2CD0022B3DDC37
:100D6800002B02D0012B13D038E01F4B1B68BA7937
:100D78005200032101FA02F2D24313407979BA7979
:100D8800520001FA02F21146174A0B43136026E09B
:100D9800164B1B68BA795200032101FA02F2D243BA
:100DA80013407979BA79520001FA02F211460F4AD2
:100DB8000B43136013E00E4B1B68BA7952000321F2
:100DC80001FA02F2D24313407979BA79520001FA52
:100DD80002F21146064A0B43136000E000BF00BF51
:100DE8000C37BD4680BC704708000240080402402A
:100DF8000808024080B483B000AF0346FB710B467D
:100E0800BB7113467B71FB79022B2CD0022B3DDC86
:100E1800002B02D0012B13D038E07B79012B05D1B0
:100E2800BB7901229A401F4B1A6031E07B79002B75
:100E38002ED1BB794FF480329A401A4B1A6027E0C2
:100E48007B79012B05D1BB7901229A40164B1A6098
:100E580020E07B79002B1DD1BB794FF480329A407A
:100E6800114B1A6016E07B79012B05D1BB79012261
:100E78009A400E4B1A600FE07B79002B0CD1BB799E
:100E88004FF480329A40094B1A6005E000BF04E035
:100E980000BF02E000BF00E000BF00BF0C37BD4646
:100EA80080BC70471800024018040240180802402D
:100EB80080B483B000AF0346FB710B46BB71134689
:100EC8007B71FB79022B2CD0022B3DDC002B02D04E
:100ED800012B13D038E01F4B1B68BA79520003214D
:100EE80001FA02F2D24313407979BA79520001FA31
:100EF80002F21146174A0B43136026E0164B1B6893
:100F0800BA795200032101FA02F2D24313407979E7
:100F1800BA79520001FA02F211460F4A0B431360E4
:100F280013E00E4B1B68BA795200032101FA02F252
:100F3800D24313407979BA79520001FA02F2114684
:100F4800064A0B43136000E000BF00BF0C37BD46E4
:100F580080BC70470C0002400C0402400C080240A0
:100F680080B485B000AF03460A46FB711346BB71D7
:100F78000023FB73FB79022B1AD0022B22DC002BF7
:100F880002D0012B0AD01DE0124B1A68BB7922FA55
:100F980003F3DBB203F00103FB7314E00E4B1A6892
:100FA800BB7922FA03F3DBB203F00103FB730AE017
:100FB8000A4B1A68BB7922FA03F3DBB203F0010388
:100FC800FB7300E000BFFB7B18461437BD4680BCAE
:100FD800704700BF10000240100402401008024091
:100FE80080B485B000AF03460A46FB711346BB7157
:100FF8000023FB60FB79022B38D0022B4FDC002B3F
:1010080002D0012B19D04AE0BB79012202FA03F37E
:1010180043F48032254B1A60BB7901229A40234B56
:101028001A60BB79012202FA03F343F480321F4BA2
:101038001A601E4B1B68FB6032E0BB79012202FA82
:1010480003F343F480321A4B1A60BB7901229A40A9
:10105800174B1A60BB79012202FA03F343F480327A
:10106800134B1A60124B1B68FB6019E0BB79012215
:1010780002FA03F343F480320E4B1A60BB79012263
:101088009A400C4B1A60BB79012202FA03F343F42D
:101098008032084B1A60074B1B68FB6000E000BFFA
:1010A80000BF1437BD4680BC704700BF1C0002401B
:1010B8001C0402401C08024080B483B000AF034601
:1010C8003960FB71FB79022B0ED0022B10DC002B50
:1010D80002D0012B04D00BE0084A3B68136008E0FB
:1010E800074A3B68136004E0064A3B68136000E067
:1010F80000BF00BF0C37BD4680BC704700000240EF
:10110800000402400008024080B483B000AF0346E8
:101118003960FB71FB79022B0ED0022B10DC002BFF
:1011280002D0012B04D00BE0084A3B68136008E0AA
:10113800074A3B68136004E0064A3B68136000E016
:1011480000BF00BF0C37BD4680BC7047040002409A
:10115800040402400408024080B483B000AF034690
:101168003960FB71FB79022B0ED0022B10DC002BAF
:1011780002D0012B04D00BE0084A3B68136008E05A
:10118800074A3B68136004E0064A3B68136000E0C6
:1011980000BF00BF0C37BD4680BC70470800024046
:1011A800080402400808024080B483B000AF034638
:1011B8000A46FB711346BB71FB79022B26D0022B22
:1011C80034DC002B02D0012B10D02FE0BB79012B8F
:1011D80004D11C4B4FF6FF721A6029E0BB79002B33
:1011E80026D1184B4FF6FF721A6021E0BB79012B0C
:1011F80004D1154B4FF6FF721A601BE0BB79002B28
:1012080018D1114B4FF6FF721A6013E0BB79012B0E
:1012180004D10E4B4FF6FF721A600DE0BB79002B1C
:101228000AD10A4B4FF6FF721A6005E000BF04E0CE
:1012380000BF02E000BF00E000BF00BF0C37BD46A2
:1012480080BC704714000240140402401408024095
:1012580080B483B000AF03463960FB71FB79022B81
:101268000ED0022B10DC002B02D0012B04D00BE097
:10127800084A3B68136008E0074A3B68136004E0CB
:10128800064A3B68136000E000BF00BF0C37BD464C
:1012980080BC70470C0002400C0402400C0802405D
:1012A80080B485B000AF0346FB710023FB73FB7964
:1012B800022B0ED0022B10DC002B02D0012B04D005
:1012C8000BE0094B1B68FB7308E0084B1B68FB73BA
:1012D80004E0074B1B68FB7300E000BFFB7B18466C
:1012E8001437BD4680BC704710000240100402400D
:1012F8001008024080B485B000AF0346FB7100239C
:10130800FB60FB79022B22D0022B2EDC002B02D0B3
:10131800012B0ED029E0184B184A1A60164B4FF6CD
:10132800FF721A60144B154A1A60134B1B68FB6056
:101338001CE0134B114A1A60114B4FF6FF721A60EA
:101348000F4B0E4A1A600E4B1B68FB600EE00D4BEC
:101358000A4A1A600B4B4FF6FF721A60094B074A8C
:101368001A60084B1B68FB6000E000BF00BF143721
:10137800BD4680BC704700BF1C000240FFFF010053
:101388001C0402401C08024080B500AF00F0ECFAD3
:1013980000BF80BD80B483B000AF0346FB7197F9EE
:1013A8000730002B0BDBFB7903F01F02064997F986
:1013B80007305B09012000FA02F241F8232000BF40
:1013C8000C37BD4680BC704700E100E080B483B0B4
:1013D80000AF0346FB7197F90730002B0CDBFB7954
:1013E80003F01F02074997F907305B09012000FA4B
:1013F80002F2203341F8232000BF0C37BD4680BCE1
:10140800704700BF00E100E080B582B000AF03463E
:101418000A46FB711346BB71BB79002B07D0012B21
:101428000BD197F907301846FFF7B4FF06E097F994
:1014380007301846FFF7CAFF00E000BF00BF0837B3
:10144800BD4680BD80B483B000AF0346FB7197F9F9
:101458000730002B0CDBFB7903F01F02074997F9D3
:1014680007305B09012000FA02F2403341F82320DB
:1014780000BF0C37BD4680BC704700BF00E100E0EC
:1014880080B483B000AF0346FB7197F90730002B97
:101498000CDBFB7903F01F02074997F907305B095A
:1014A800012000FA02F2603341F8232000BF0C3714
:1014B800BD4680BC704700BF00E100E080B483B047
:1014C80000AF0346FB7197F90730002B14DB0D4A78
:1014D80097F907305B09803352F82330002B09D085
:1014E800FB7903F01F03012202FA03F3002B01D05A
:1014F800012302E0002300E0002318460C37BD4614
:1015080080BC704700E100E080B483B000AF0346C0
:101518003960FB7197F90730002B09DB3B68DAB2B9
:10152800064997F907301201D2B20B4483F8002319
:1015380000BF0C37BD4680BC704700BF00E100E02B
:1015480080B483B000AF0346FB7197F90730002BD6
:1015580009DB084A97F90730134493F80033DBB2E4
:101568001B09DBB200E0002318460C37BD4680BCDF
:10157800704700BF00E100E080B483B000AF0346CD
:10158800FB7197F90730002B03DBFA79034BC3F89B
:10159800002E00BF0C37BD4680BC704700E100E05C
:1015A80080B400AF144B1B68134A43F00103136067
:1015B800114B1B68104A23F4803313600E4B1B68D1
:1015C8000D4A23F08073136000BF0B4B1B685B0848
:1015D80003F00103002BF8D0084B1B68074A23F0DF
:1015E80001031360054B1B68044A23F002031360D0
:1015F80000BFBD4680BC7047003802400838024032
:1016080080B400AF144B1B68134A43F48033136053
:10161800114B1B68104A23F0010313600E4B1B6823
:101628000D4A23F08073136000BF0B4B1B685B0CE3
:1016380003F00103002BF8D0084B1B68074A43F05E
:1016480001031360054B1B68044A23F0020313606F
:1016580000BFBD4680BC70470038024008380240D1
:1016680080B400AF304B1B682F4A23F0807313609F
:101678002D4B1B682C4A23F0806313602B4B1B688F
:101688002A4A23F4FF4323F040031360274B1B68C7
:10169800264A43F441531360244B1B68234A23F022
:1016A8003F031360214B1B68204A43F03F0313603C
:1016B8001E4B1B681D4A23F4403313601B4B1B68E9
:1016C8001A4A43F440331360184B1B68174A23F433
:1016D80080031360144B1B68134A43F08073136034
:1016E800114B1B68104A23F4803313600E4B1B68A0
:1016F8000D4A23F48033136000BF0B4B1B685B0E4D
:1017080003F00103002BF8D0094B1B68084A43F08B
:1017180001031360064B1B68054A43F0020313607C
:1017280000BFBD4680BC7047003802400438024004
:101738000838024080B400AF074B1B68064A23F004
:10174800F0031360044B1B68034A43F080031360E3
:1017580000BFBD4680BC70470838024080B400AF67
:10176800064B1B68054A23F4E0531360034B034AF6
:101778001B68136000BFBD4680BC70470838024034
:1017880080B400AF064B1B68054A23F4604313601E
:10179800034B034A1B68136000BFBD4680BC7047FB
:1017A8000838024080B500AFFFF7FAFEFFF7C2FF26
:1017B800FFF7D4FFFFF7E4FF00BF80BD80B483B01C
:1017C80000AF0346FB71FB79002B06D10F4B1B685A
:1017D8000E4A43F00103136012E0FB79012B06D196
:1017E8000A4B1B68094A43F48033136008E0FB790D
:1017F800022B05D1054B1B68044A43F08073136024
:1018080000BF0C37BD4680BC704700BF003802409F
:1018180080B483B000AF0346FB71FB79002B06D17F
:101828000F4B1B680E4A23F00103136012E0FB798B
:10183800012B06D10A4B1B68094A23F48033136035
:1018480008E0FB79022B05D1054B1B68044A23F0FD
:101858008073136000BF0C37BD4680BC704700BF63
:101868000038024080B483B000AF03460A46FB71DB
:101878001346BB71FB79022B1CD0022B25DC002BF5
:1018880002D0012B0BD020E0134B1B68BA79012141
:1018980001FA02F21146104A0B43136016E00F4B8F
:1018A8001B68BA79012101FA02F211460B4A0B436F
:1018B80013600BE00A4B1B68BA79012101FA02F2A6
:1018C8001146074A0B43136000E000BF00BF0C3706
:1018D800BD4680BC704700BF3038024040380240E7
:1018E8004438024080B483B000AF03460A46FB7117
:1018F8001346BB71FB79022B1ED0022B28DC002B70
:1019080002D0012B0CD023E0144B1B68BA790121BB
:1019180001FA02F2D2431146104A0B40136018E054
:101928000F4B1B68BA79012101FA02F2D243114622
:101938000B4A0B4013600CE00A4B1B68BA79012173
:1019480001FA02F2D2431146064A0B40136000E046
:1019580000BF00BF0C37BD4680BC7047303802401E
:10196800403802404438024080B483B000AF0023BE
:101978007B6005233B600C4BDB687B607A684FF625
:10198800FF0313407B603B681A027B68134343F0F4
:10199800BF6343F400337B60034A7B68D36000BFB6
:1019A8000C37BD4680BC704700ED00E080B483B0C2
:1019B80000AF00237B60084BDB687B607B6803F427
:1019C800E0637B607B681B0A7B607B6818460C378A
:1019D800BD4680BC704700BF00ED00E080B400AF9A
:1019E8000A4B1B68094A23F004031360074B1B6862
:1019F800064A23F002031360044B1B68034A43F0B2
:101A08000103136000BFBD4680BC704710E000E0D2
:101A180080B400AF0A4B1B68094A23F00103136026
:101A2800074B00225A60064B00229A60044B1B6841
:101A3800034A23F00203136000BFBD4680BC704711
:101A480010E000E080B483B000AF78600C4A7B6897
:101A580053600B4B00229A6000BF094B1B681B0C9C
:101A680003F00103002BF8D0054B00225A60044B09
:101A780000229A6000BF0C37BD4680BC704700BF8B
:101A880010E000E080B483B000AF786039603B6854
:101A9800002B17D00E4A7B6853600D4B00229A60CA
:101AA8000C4A3B6813600C4B00221A70084B1B68E9
:101AB800074A43F002031360054B1B68044A43F0CE
:101AC8000103136000BF0C37BD4680BC704700BFE0
:101AD80010E000E0280100202C01002080B483B031
:101AE80000AF786039603B68002B17D00E4A7B68DE
:101AF80053600D4B00229A600C4A3B6813600C4BF4
:101B080001221A70084B1B68074A43F0020313604E
:101B1800054B1B68044A43F00103136000BF0C37F0
:101B2800BD4680BC704700BF10E000E028010020DF
:101B38002C01002080B483B000AF00237B60064BEB
:101B48005A68054B9B68D31A7B607B6818460C372C
:101B5800BD4680BC704700BF10E000E080B483B091
:101B680000AF00237B6000233B60074B5A68064B9D
:101B78009B68D31A7B607B683B603B6818460C37D0
:101B8800BD4680BC704700BF10E000E080B483B061
:101B980000AF00237B60044B9B687B607B68184622
:101BA8000C37BD4680BC704710E000E080B400AF41
:101BB800034B00229A6000BFBD4680BC704700BF3F
:101BC80010E000E080B483B000AF7860054A7B681D
:101BD8005360044B00229A6000BF0C37BD4680BC9E
:101BE800704700BF10E000E080B500AF074B1B78DE
:101BF800DBB2002B01D1FFF70BFF054B1B68002B55
:101C080002D0034B1B68984700BF80BD2C01002001
:101C18002801002080B584B000AF78600023FB6005
:101C2800786800F0C3FE4FF00002154B00F052FC3C
:101C380002460B461046194600F032FF0346FB6089
:101C4800FB68B3F1807F02D36FF07F43FB600D4ADE
:101C5800FB6853600B4B00229A6000BF094B1B685E
:101C68001B0C03F00103002BF8D0064B00225A602E
:101C7800044B00229A6000BF1037BD4680BD00BFEC
:101C880000408F4010E000E080B584B000AF78607D
:101C98000023FB60786800F089FE02460B46104678
:101CA800194600F0FDFE0346FB60FB68B3F1807F38
:101CB80002D36FF07F43FB60114B1B68104A23F07F
:101CC800010313600E4AFB6853600D4B00229A60B3
:101CD8000B4B1B680A4A43F00103136000BF084B13
:101CE8001B681B0C03F00103002BF8D0044B0022E7
:101CF8005A60034B00229A6000BF1037BD4680BD72
:101D080010E000E080B584B000AF7860396000234F
:101D1800FB603B68002B2ED0786800F047FE4FF040
:101D28000002174B00F0D6FB02460B461046194638
:101D380000F0B6FE0346FB60FB68B3F1807F02D378
:101D48006FF07F43FB600F4AFB6853600D4B002226
:101D58009A600D4A3B6813600C4B00221A70094BBD
:101D68001B68084A43F002031360064B1B68054AC8
:101D780043F00103136000BF1037BD4680BD00BFAC
:101D880000408F4010E000E0280100202C010020D6
:101D980080B582B000AF78607B685B78022B10D08A
:101DA800022B13DC002B02D0012B05D00EE0002102
:101DB8000020FFF757FD0AE001210020FFF752FD40
:101DC80005E002210020FFF74DFD00E000BF7B6821
:101DD80058787B681B7800221946FEF70BFF7B6852
:101DE800DB78002B08D17B6858787B681B78022247
:101DF8001946FFF75DF80BE07B68DB78012B07D10C
:101E08007B6858787B681B7801221946FFF750F8E1
:101E180000BF0837BD4680BD80B584B000AF78608C
:101E28000023FB737B685A787B681B781946104639
:101E3800FFF796F80346FB73FB7B012B0DD17B68FC
:101E4800DB78002B02D10023FB7316E07B68DB787C
:101E5800012B12D10123FB730FE0FB7B002B0CD16C
:101E68007B68DB78002B02D10123FB7305E07B68DC
:101E7800DB78012B01D10023FB73FB7B184610375D
:101E8800BD4680BD80B584B000AF7860396000235E
:101E9800FB737B689B78BB737B685B787B737B6821
:101EA8001B783B7307F10C031A491846FEF7B6FB7B
:101EB8007B681B78022B10D0022B13DC002B02D07E
:101EC800012B05D00EE000210020FFF7CBFC0AE033
:101ED80001210020FFF7C6FC05E002210020FFF7E2
:101EE800C1FC00E000BF7B6818787B685B78002243
:101EF8001946FEF77FFE7B6818787B685B780022BE
:101F08001946FEF7D5FF044A3B68136000BF103737
:101F1800BD4680BD651F00083001002080B483B035
:101F280000AF084B1B78FB71064B1B78DBB2012B0B
:101F380002D1044B00221A70FB7918460C37BD46B3
:101F480080BC70473801002080B400AF024B1B688A
:101F58001846BD4680BC70473401002080B582B069
:101F680000AF00237B60424B1B78002B07D1404B0E
:101F780001221A7043F69820FFF724FE73E03C4BC9
:101F88001B78012B12D1FFF7E9FD78607B6843F2DB
:101F9800C722934207D97B6843F69822934202D816
:101FA800334B02221A70FFF701FE5CE0304B1B78BE
:101FB800022B43D1FFF7D2FD78607B68B3F57A7FB7
:101FC80012D37B6840F2DC5293420DD8294B93F927
:101FD80000301A4601239340DB431A46264B1B6800
:101FE8001340254A136014E07B68B3F5FA6F10D3E9
:101FF8007B6840F6C41293420BD81E4B93F900300D
:102008001A46012393401A461B4B1B6813431A4A6E
:102018001360184B93F90030DBB2013BDBB25AB2C4
:10202800144B1A70134B93F90030B3F1FF3F02D1F0
:102038000F4B05221A70FFF7B9FD14E00C4B1B7803
:10204800052B10D10B4B1F221A70094B00221A7056
:102058000A4B1B68002B03D0084B1B68984702E00B
:10206800074B01221A7000BF0837BD4680BD00BF6C
:102078003901002017000020340100203001002021
:102088003801002080B582B000AF78607B685B784B
:10209800022B10D0022B13DC002B02D0012B05D011
:1020A8000EE000210020FFF7DDFB0AE001210020FF
:1020B800FFF7D8FB05E002210020FFF7D3FB00E083
:1020C80000BF7B6858787B681B7801221946FEF7A9
:1020D80091FD7B6858787B681B7800221946FEF7CB
:1020E800E1FD7B6858787B681B7800221946FEF76B
:1020F80029FE7B6858787B6819787B689B781A4634
:10210800FEF778FE00BF0837BD4680BD80B582B0B7
:1021180000AF78607B6858787B681B780122194685
:10212800FEF768FE7B6801229A7000BF0837BD463B
:1021380080BD80B582B000AF78607B6858787B68D6
:102148001B7800221946FEF755FE7B6800229A701C
:1021580000BF0837BD4680BD80B582B000AF78604B
:102168007B689B78012B03D17868FFF7E2FF06E0D4
:102178007B689B78002B02D17868FFF7C7FF00BF08
:102188000837BD4680BD80B582B000AF03460A4619
:10219800FB711346BB71FB79022B10D0022B13DCA9
:1021A800002B02D0012B05D00EE000210020FFF704
:1021B80059FB0AE001210020FFF754FB05E002214A
:1021C8000020FFF74FFB00E000BFB979FB7901223F
:1021D8001846FEF70FFDB979FB7900221846FEF77D
:1021E80061FDB979FB7900221846FEF7ABFDB97994
:1021F800FB7901221846FEF7FDFD00BF0837BD46F2
:1022080080BD80B582B000AF78607B685A787B6803
:102218001B7819461046FFF7B6FF7B681A797B686A
:10222800DB7819461046FFF7AEFF7B68DA797B68E2
:102238009B7919461046FFF7A6FF00BF0837BD4631
:1022480080BD80B582B000AF78600B46FB707B68BC
:1022580058787B681978FB789B08DBB203F0010398
:10226800002B0CBF01230023DBB21A46FEF7C2FD88
:10227800FB789B08DBB203F00103002B0CBF0123A2
:102288000023DBB21A467B689A707B6818797B68F2
:10229800D978FB785B08DBB203F00103002B0CBF95
:1022A80001230023DBB21A46FEF7A4FDFB785B0886
:1022B800DBB203F00103002B0CBF01230023DBB2C8
:1022C8001A467B685A717B68D8797B689979FB785C
:1022D80003F00103002B0CBF01230023DBB21A46D5
:1022E800FEF788FDFB7803F00103002B0CBF0123E8
:1022F8000023DBB21A467B681A7200BF0837BD4656
:1023080080BD80B582B000AF78600B46FB70FB786B
:10231800022B1ED0022B28DC002B02D0012B0CD064
:1023280023E07B6858787B681B7800221946FEF703
:1023380061FD7B6800229A7017E07B6818797B68DA
:10234800DB7800221946FEF755FD7B6800225A719A
:102358000BE07B68D8797B689B7900221946FEF7E9
:1023680049FD7B6800221A7200BF00BF0837BD46CE
:1023780080BD80B582B000AF78600B46FB70FB78FB
:10238800022B1ED0022B28DC002B02D0012B0CD0F4
:1023980023E07B6858787B681B7801221946FEF792
:1023A80029FD7B6801229A7017E07B6818797B68A1
:1023B800DB7801221946FEF71DFD7B6801225A7160
:1023C8000BE07B68D8797B689B7901221946FEF778
:1023D80011FD7B6801221A7200BF00BF0837BD4695
:1023E80080BD80B582B000AF78600B46FB70FB788B
:1023F800022B46D0022B69DC002B02D0012B20D007
:1024080064E07B689B78002B0BD17B6858787B68ED
:102418001B7801221946FEF7EDFC7B6801229A70B1
:102428004FE07B689B78012B4BD17B6858787B68A1
:102438001B7800221946FEF7DDFC7B6800229A70A3
:102448003FE07B685B79002B0BD17B6818797B6850
:10245800DB7801221946FEF7CDFC7B6801225A7110
:1024680031E07B685B79012B2DD17B6818797B681B
:10247800DB7800221946FEF7BDFC7B6800225A7102
:1024880021E07B681B7A002B0BD17B68D8797B68AD
:102498009B7901221946FEF7ADFC7B6801221A726E
:1024A80013E07B681B7A012B0FD17B68D8797B6896
:1024B8009B7900221946FEF79DFC7B6800221A7260
:1024C80003E000BF02E000BF00E000BF00BF083724
:1024D800BD4680BD70B54FF0FF0C4CF4E06C1CEAB3
:1024E80011541DBF1CEA135594EA0C0F95EA0C0F02
:1024F80000F0DEF82C4481EA030621EA4C5123EA75
:102508004C5350EA013518BF52EA033541F48011A3
:1025180043F4801338D0A0FB02CE4FF00005E1FB56
:1025280002E506F00042E0FB03E54FF00006E1FBA0
:1025380003569CF0000F18BF4EF0010EA4F1FF04E3
:10254800B6F5007F64F5407404D25FEA4E0E6D4123
:1025580046EB060642EAC62141EA55514FEAC52034
:1025680040EA5E504FEACE2EB4F1FD0C88BFBCF5B0
:10257800E06F1ED8BEF1004F08BF5FEA500E50F161
:10258800000041EB045170BD06F0004646EA010127
:1025980040EA020081EA0301B4EB5C04C2BFD4EB59
:1025A8000C0541EA045170BD41F480114FF0000E52
:1025B800013C00F3AB8014F1360FDEBF002001F0C0
:1025C800004170BDC4F10004203C35DA0C341BDC3A
:1025D80004F11404C4F1200500FA05F320FA04F00C
:1025E80001FA05F240EA020001F0004221F0004140
:1025F80010EBD37021FA04F642EB06015EEA430EB3
:1026080008BF20EAD37070BDC4F10C04C4F12005E2
:1026180000FA04F320FA05F001FA04F240EA020095
:1026280001F0004110EBD37041F100015EEA430E66
:1026380008BF20EAD37070BDC4F1200500FA05F286
:102648004EEA020E20FA04F301FA05F243EA020305
:1026580021FA04F001F0004121FA04F220EA020014
:1026680000EBD3705EEA430E08BF20EAD37070BD5A
:1026780094F0000F0FD101F00046400041EB01013A
:1026880011F4801F08BF013CF7D041EA060195F01C
:10269800000F18BF704703F00046520043EB0303D6
:1026A80013F4801F08BF013DF7D043EA06037047C3
:1026B80094EA0C0F0CEA135518BF95EA0C0F0CD0CE
:1026C80050EA410618BF52EA4306D1D181EA030114
:1026D80001F000414FF0000070BD50EA410606BF0E
:1026E8001046194652EA430619D094EA0C0F02D153
:1026F80050EA013613D195EA0C0F05D152EA033698
:102708001CBF104619460AD181EA030101F00041B5
:1027180041F0FE4141F470014FF0000070BD41F0FE
:10272800FE4141F4780170BD81F0004102E000BF34
:1027380083F0004330B54FEA41044FEA430594EA79
:10274800050F08BF90EA020F1FBF54EA000C55EAB4
:10275800020C7FEA645C7FEA655C00F0E2804FEA85
:102768005454D4EB5555B8BF6D420CDD2C4480EA67
:10277800020281EA030382EA000083EA010180EA97
:10278800020281EA0303362D88BF30BD11F0004FE5
:102798004FEA01314FF4801C4CEA113102D040421B
:1027A80061EB410113F0004F4FEA03334CEA133356
:1027B80002D0524263EB430394EA050F00F0A7806E
:1027C800A4F10104D5F1200E0DDB02FA0EFC22FA69
:1027D80005F2801841F1000103FA0EF2801843FA5D
:1027E80005F359410EE0A5F120050EF1200E012A4E
:1027F80003FA0EFC28BF4CF0020C43FA05F3C0188C
:1028080051EBE37101F0004507D54FF0000EDCF104
:10281800000C7EEB00006EEB0101B1F5801F1BD3AD
:10282800B1F5001F0CD349085FEA30004FEA3C0CB1
:1028380004F101044FEA445212F5800F80F09A80A7
:10284800BCF1004F08BF5FEA500C50F1000041EBAB
:10285800045141EA050130BD5FEA4C0C404141EBAF
:102868000101013C28BFB1F5801FE9D291F0000FAA
:1028780004BF01460020B1FA81F308BF2033A3F159
:102888000B03B3F120020CDA0C3208DD02F1140C50
:10289800C2F10C0201FA0CF021FA02F10CE002F18B
:1028A8001402D8BFC2F1200C01FA02F120FA0CFC84
:1028B800DCBF41EA0C019040E41AA2BF01EB0451CD
:1028C800294330BD6FEA04041F3C1CDA0C340EDCCB
:1028D80004F11404C4F1200220FA04F001FA02F30E
:1028E80040EA030021FA04F345EA030130BDC4F1CC
:1028F8000C04C4F1200220FA02F001FA04F340EAC1
:102908000300294630BD21FA04F0294630BD94F071
:10291800000F83F4801306BF81F480110134013D58
:102928004EE77FEA645C18BF7FEA655C29D094EAC9
:10293800050F08BF90EA020F05D054EA000C04BF47
:102948001946104630BD91EA030F1EBF0021002032
:1029580030BD5FEA545C05D14000494128BF41F0D1
:10296800004130BD14F580043CBF01F5801130BD35
:1029780001F0004545F0FE4141F470014FF00000C0
:1029880030BD7FEA645C1ABF194610467FEA655C71
:102998001CBF0B46024650EA013406BF52EA033513
:1029A80091EA030F41F4002130BD00BF90F0000F01
:1029B80004BF0021704730B54FF4806404F132043D
:1029C8004FF000054FF0000150E700BF90F0000FF6
:1029D80004BF0021704730B54FF4806404F132041D
:1029E80010F0004548BF40424FF000013EE700BFED
:1029F80042004FEAE2014FEA31014FEA02701FBF7D
:102A080012F07F4393F07F4F81F06051704732F0AE
:102A18007F4208BF704793F07F4F04BF41F4002105
:102A2800704730B54FF4607401F0004521F0004163
:102A38001CE700BF50EA010208BF704730B54FF0ED
:102A480000050AE050EA010208BF704730B511F0EE
:102A5800004502D5404261EB41014FF4806404F126
:102A680032045FEA915C3FF4D8AE4FF003025FEAAC
:102A7800DC0C18BF03325FEADC0C18BF033202EB30
:102A8800DC02C2F1200300FA03FC20FA02F001FA8A
:102A980003FE40EA0E0021FA02F11444BDE600BF2D
:102AA8004A0011D212F5001211D20DD56FF47873C5
:102AB800B3EB62520ED44FEAC12343F0004343EA1A
:102AC800505323FA02F070474FF00000704750EA65
:102AD800013002D14FF0FF3070474FF000007047CF
:102AE800014B1868704700BF4400002008B5074B29
:102AF800044613B10021AFF30080054B1868836AC0
:102B080003B198472046FDF79AFC00BF000000007B
:102B1800D42B000870B50D4D0D4C641BA410002675
:102B2800A64209D10B4D0C4C00F020F8641BA410F0
:102B38000026A64205D170BD55F8043B98470136DA
:102B4800EEE755F8043B98470136F2E7000000002D
:102B580000000000000000000000000002440346DE
:102B6800934200D1704703F8011BF9E7F8B500BF9D
:102B7800F8BC08BC9E467047F8B500BFF8BC08BC56
:042B88009E467047AE
:102B8C003A3D0A3D0F3D243D323D023D053D133D8E
:102B9C000D3D0C3D233D113D263D013D173D083DAE
:102BAC00093D00003A3D0A3D0F3D243D323D023DBA
:102BBC00053D133D0D3D0C3D233D113D263D013D95
:0C2BCC00173D083D093D000048000020B6
:042BD80000000000F9
:082BDC009CD6FF7F0100000000
:102BE40000000000E00000200101000000000100DE
:102BF400010101000000011F0100000000010000AC
:102C040002000000030000000400000005000000B2
:102C1400060000000700000000010101010103019A
:102C24000100000048000020000000000000000037
:102C34000000000000000000000000000000000090
:102C44000000000000000000000000000000000080
:102C54000000000000000000000000000000000070
:102C64000000000000000000000000000000000060
:102C74000000000000000000000000000000000050
:082C8400000000000000000048
:042C8C005D020008DD
:042C900039020008FD
:0400000508000238B5
:00000001FF
